{
  "_format": "hh-sol-artifact-1",
  "contractName": "DLMemberNFT",
  "sourceName": "contracts/DLMemberNFT.sol",
  "abi": [
    {
      "inputs": [
        {
          "internalType": "string",
          "name": "_name",
          "type": "string"
        },
        {
          "internalType": "string",
          "name": "_symbol",
          "type": "string"
        },
        {
          "internalType": "string",
          "name": "_initBaseURI",
          "type": "string"
        }
      ],
      "stateMutability": "nonpayable",
      "type": "constructor"
    },
    {
      "anonymous": false,
      "inputs": [
        {
          "indexed": true,
          "internalType": "address",
          "name": "owner",
          "type": "address"
        },
        {
          "indexed": true,
          "internalType": "address",
          "name": "approved",
          "type": "address"
        },
        {
          "indexed": true,
          "internalType": "uint256",
          "name": "tokenId",
          "type": "uint256"
        }
      ],
      "name": "Approval",
      "type": "event"
    },
    {
      "anonymous": false,
      "inputs": [
        {
          "indexed": true,
          "internalType": "address",
          "name": "owner",
          "type": "address"
        },
        {
          "indexed": true,
          "internalType": "address",
          "name": "operator",
          "type": "address"
        },
        {
          "indexed": false,
          "internalType": "bool",
          "name": "approved",
          "type": "bool"
        }
      ],
      "name": "ApprovalForAll",
      "type": "event"
    },
    {
      "anonymous": false,
      "inputs": [
        {
          "indexed": true,
          "internalType": "address",
          "name": "previousOwner",
          "type": "address"
        },
        {
          "indexed": true,
          "internalType": "address",
          "name": "newOwner",
          "type": "address"
        }
      ],
      "name": "OwnershipTransferred",
      "type": "event"
    },
    {
      "anonymous": false,
      "inputs": [
        {
          "indexed": true,
          "internalType": "address",
          "name": "from",
          "type": "address"
        },
        {
          "indexed": true,
          "internalType": "address",
          "name": "to",
          "type": "address"
        },
        {
          "indexed": true,
          "internalType": "uint256",
          "name": "tokenId",
          "type": "uint256"
        }
      ],
      "name": "Transfer",
      "type": "event"
    },
    {
      "inputs": [
        {
          "internalType": "address",
          "name": "to",
          "type": "address"
        },
        {
          "internalType": "uint256",
          "name": "tokenId",
          "type": "uint256"
        }
      ],
      "name": "approve",
      "outputs": [],
      "stateMutability": "nonpayable",
      "type": "function"
    },
    {
      "inputs": [
        {
          "internalType": "address",
          "name": "owner",
          "type": "address"
        }
      ],
      "name": "balanceOf",
      "outputs": [
        {
          "internalType": "uint256",
          "name": "",
          "type": "uint256"
        }
      ],
      "stateMutability": "view",
      "type": "function"
    },
    {
      "inputs": [],
      "name": "baseExtension",
      "outputs": [
        {
          "internalType": "string",
          "name": "",
          "type": "string"
        }
      ],
      "stateMutability": "view",
      "type": "function"
    },
    {
      "inputs": [],
      "name": "baseURI",
      "outputs": [
        {
          "internalType": "string",
          "name": "",
          "type": "string"
        }
      ],
      "stateMutability": "view",
      "type": "function"
    },
    {
      "inputs": [],
      "name": "cost",
      "outputs": [
        {
          "internalType": "uint256",
          "name": "",
          "type": "uint256"
        }
      ],
      "stateMutability": "view",
      "type": "function"
    },
    {
      "inputs": [
        {
          "internalType": "uint256",
          "name": "tokenId",
          "type": "uint256"
        }
      ],
      "name": "getApproved",
      "outputs": [
        {
          "internalType": "address",
          "name": "",
          "type": "address"
        }
      ],
      "stateMutability": "view",
      "type": "function"
    },
    {
      "inputs": [
        {
          "internalType": "address",
          "name": "owner",
          "type": "address"
        },
        {
          "internalType": "address",
          "name": "operator",
          "type": "address"
        }
      ],
      "name": "isApprovedForAll",
      "outputs": [
        {
          "internalType": "bool",
          "name": "",
          "type": "bool"
        }
      ],
      "stateMutability": "view",
      "type": "function"
    },
    {
      "inputs": [],
      "name": "maxMintAmount",
      "outputs": [
        {
          "internalType": "uint256",
          "name": "",
          "type": "uint256"
        }
      ],
      "stateMutability": "view",
      "type": "function"
    },
    {
      "inputs": [],
      "name": "maxSupply",
      "outputs": [
        {
          "internalType": "uint256",
          "name": "",
          "type": "uint256"
        }
      ],
      "stateMutability": "view",
      "type": "function"
    },
    {
      "inputs": [
        {
          "internalType": "address",
          "name": "_to",
          "type": "address"
        },
        {
          "internalType": "uint256",
          "name": "_mintAmount",
          "type": "uint256"
        }
      ],
      "name": "mint",
      "outputs": [],
      "stateMutability": "payable",
      "type": "function"
    },
    {
      "inputs": [],
      "name": "name",
      "outputs": [
        {
          "internalType": "string",
          "name": "",
          "type": "string"
        }
      ],
      "stateMutability": "view",
      "type": "function"
    },
    {
      "inputs": [],
      "name": "owner",
      "outputs": [
        {
          "internalType": "address",
          "name": "",
          "type": "address"
        }
      ],
      "stateMutability": "view",
      "type": "function"
    },
    {
      "inputs": [
        {
          "internalType": "uint256",
          "name": "tokenId",
          "type": "uint256"
        }
      ],
      "name": "ownerOf",
      "outputs": [
        {
          "internalType": "address",
          "name": "",
          "type": "address"
        }
      ],
      "stateMutability": "view",
      "type": "function"
    },
    {
      "inputs": [
        {
          "internalType": "bool",
          "name": "_state",
          "type": "bool"
        }
      ],
      "name": "pause",
      "outputs": [],
      "stateMutability": "nonpayable",
      "type": "function"
    },
    {
      "inputs": [],
      "name": "paused",
      "outputs": [
        {
          "internalType": "bool",
          "name": "",
          "type": "bool"
        }
      ],
      "stateMutability": "view",
      "type": "function"
    },
    {
      "inputs": [
        {
          "internalType": "address",
          "name": "_user",
          "type": "address"
        }
      ],
      "name": "removeWhitelistUser",
      "outputs": [],
      "stateMutability": "nonpayable",
      "type": "function"
    },
    {
      "inputs": [],
      "name": "renounceOwnership",
      "outputs": [],
      "stateMutability": "nonpayable",
      "type": "function"
    },
    {
      "inputs": [
        {
          "internalType": "address",
          "name": "from",
          "type": "address"
        },
        {
          "internalType": "address",
          "name": "to",
          "type": "address"
        },
        {
          "internalType": "uint256",
          "name": "tokenId",
          "type": "uint256"
        }
      ],
      "name": "safeTransferFrom",
      "outputs": [],
      "stateMutability": "nonpayable",
      "type": "function"
    },
    {
      "inputs": [
        {
          "internalType": "address",
          "name": "from",
          "type": "address"
        },
        {
          "internalType": "address",
          "name": "to",
          "type": "address"
        },
        {
          "internalType": "uint256",
          "name": "tokenId",
          "type": "uint256"
        },
        {
          "internalType": "bytes",
          "name": "_data",
          "type": "bytes"
        }
      ],
      "name": "safeTransferFrom",
      "outputs": [],
      "stateMutability": "nonpayable",
      "type": "function"
    },
    {
      "inputs": [
        {
          "internalType": "address",
          "name": "operator",
          "type": "address"
        },
        {
          "internalType": "bool",
          "name": "approved",
          "type": "bool"
        }
      ],
      "name": "setApprovalForAll",
      "outputs": [],
      "stateMutability": "nonpayable",
      "type": "function"
    },
    {
      "inputs": [
        {
          "internalType": "string",
          "name": "_newBaseExtension",
          "type": "string"
        }
      ],
      "name": "setBaseExtension",
      "outputs": [],
      "stateMutability": "nonpayable",
      "type": "function"
    },
    {
      "inputs": [
        {
          "internalType": "string",
          "name": "_newBaseURI",
          "type": "string"
        }
      ],
      "name": "setBaseURI",
      "outputs": [],
      "stateMutability": "nonpayable",
      "type": "function"
    },
    {
      "inputs": [
        {
          "internalType": "uint256",
          "name": "_newCost",
          "type": "uint256"
        }
      ],
      "name": "setCost",
      "outputs": [],
      "stateMutability": "nonpayable",
      "type": "function"
    },
    {
      "inputs": [
        {
          "internalType": "uint256",
          "name": "_newmaxMintAmount",
          "type": "uint256"
        }
      ],
      "name": "setmaxMintAmount",
      "outputs": [],
      "stateMutability": "nonpayable",
      "type": "function"
    },
    {
      "inputs": [
        {
          "internalType": "bytes4",
          "name": "interfaceId",
          "type": "bytes4"
        }
      ],
      "name": "supportsInterface",
      "outputs": [
        {
          "internalType": "bool",
          "name": "",
          "type": "bool"
        }
      ],
      "stateMutability": "view",
      "type": "function"
    },
    {
      "inputs": [],
      "name": "symbol",
      "outputs": [
        {
          "internalType": "string",
          "name": "",
          "type": "string"
        }
      ],
      "stateMutability": "view",
      "type": "function"
    },
    {
      "inputs": [
        {
          "internalType": "uint256",
          "name": "index",
          "type": "uint256"
        }
      ],
      "name": "tokenByIndex",
      "outputs": [
        {
          "internalType": "uint256",
          "name": "",
          "type": "uint256"
        }
      ],
      "stateMutability": "view",
      "type": "function"
    },
    {
      "inputs": [
        {
          "internalType": "address",
          "name": "owner",
          "type": "address"
        },
        {
          "internalType": "uint256",
          "name": "index",
          "type": "uint256"
        }
      ],
      "name": "tokenOfOwnerByIndex",
      "outputs": [
        {
          "internalType": "uint256",
          "name": "",
          "type": "uint256"
        }
      ],
      "stateMutability": "view",
      "type": "function"
    },
    {
      "inputs": [
        {
          "internalType": "uint256",
          "name": "tokenId",
          "type": "uint256"
        }
      ],
      "name": "tokenURI",
      "outputs": [
        {
          "internalType": "string",
          "name": "",
          "type": "string"
        }
      ],
      "stateMutability": "view",
      "type": "function"
    },
    {
      "inputs": [],
      "name": "totalSupply",
      "outputs": [
        {
          "internalType": "uint256",
          "name": "",
          "type": "uint256"
        }
      ],
      "stateMutability": "view",
      "type": "function"
    },
    {
      "inputs": [
        {
          "internalType": "address",
          "name": "from",
          "type": "address"
        },
        {
          "internalType": "address",
          "name": "to",
          "type": "address"
        },
        {
          "internalType": "uint256",
          "name": "tokenId",
          "type": "uint256"
        }
      ],
      "name": "transferFrom",
      "outputs": [],
      "stateMutability": "nonpayable",
      "type": "function"
    },
    {
      "inputs": [
        {
          "internalType": "address",
          "name": "newOwner",
          "type": "address"
        }
      ],
      "name": "transferOwnership",
      "outputs": [],
      "stateMutability": "nonpayable",
      "type": "function"
    },
    {
      "inputs": [
        {
          "internalType": "address",
          "name": "_owner",
          "type": "address"
        }
      ],
      "name": "walletOfOwner",
      "outputs": [
        {
          "internalType": "uint256[]",
          "name": "",
          "type": "uint256[]"
        }
      ],
      "stateMutability": "view",
      "type": "function"
    },
    {
      "inputs": [
        {
          "internalType": "address",
          "name": "_user",
          "type": "address"
        }
      ],
      "name": "whitelistUser",
      "outputs": [],
      "stateMutability": "nonpayable",
      "type": "function"
    },
    {
      "inputs": [
        {
          "internalType": "address",
          "name": "",
          "type": "address"
        }
      ],
      "name": "whitelisted",
      "outputs": [
        {
          "internalType": "bool",
          "name": "",
          "type": "bool"
        }
      ],
      "stateMutability": "view",
      "type": "function"
    },
    {
      "inputs": [],
      "name": "withdraw",
      "outputs": [],
      "stateMutability": "payable",
      "type": "function"
    }
  ],
  "bytecode": "0x60c06040526005608081905264173539b7b760d91b60a09081526200002891600c919062000a5c565b50674563918244f40000600d55612710600e55601e600f556010805460ff191690553480156200005757600080fd5b506040516200373f3803806200373f8339810160408190526200007a9162000bc2565b8251839083906200009390600090602085019062000a5c565b508051620000a990600190602084019062000a5c565b505050620000c6620000c0620000e760201b60201c565b620000eb565b620000d1816200013d565b620000de336014620001b6565b50505062000db2565b3390565b600a80546001600160a01b038381166001600160a01b0319831681179093556040519116919082907f8be0079c531659141344cd1fd0a4f28419497f9722a3daafe3b4186f6b6457e090600090a35050565b600a546001600160a01b031633146200019d5760405162461bcd60e51b815260206004820181905260248201527f4f776e61626c653a2063616c6c6572206973206e6f7420746865206f776e657260448201526064015b60405180910390fd5b8051620001b290600b90602084019062000a5c565b5050565b6000620001c260085490565b60105490915060ff16156200020e5760405162461bcd60e51b8152602060048201526011602482015270135a5b9d1a5b99c81a5cc81c185d5cd959607a1b604482015260640162000194565b600082116200026e5760405162461bcd60e51b815260206004820152602560248201527f4d696e7420616d6f756e74206d7573742062652067726561746572207468616e604482015264207a65726f60d81b606482015260840162000194565b600f54821115620002d35760405162461bcd60e51b815260206004820152602860248201527f4d696e7420616d6f756e74206d757374206265206c657373207468616e207468604482015267065206d61782033360c41b606482015260840162000194565b600e54620002e2838362000ca5565b1115620003325760405162461bcd60e51b815260206004820152601b60248201527f4d696e7420616d6f756e7420657863656564656420737570706c790000000000604482015260640162000194565b600a546001600160a01b031633146200037f573360009081526011602052604090205460ff1615156001146200037f5781600d5462000372919062000cc0565b3410156200037f57600080fd5b60015b828111620003b657620003a1846200039b838562000ca5565b620003bc565b80620003ad8162000d68565b91505062000382565b50505050565b620001b2828260405180602001604052806000815250620003de60201b60201c565b620003ea838362000456565b620003f96000848484620005ac565b620004515760405162461bcd60e51b815260206004820152603260248201526000805160206200371f83398151915260448201527131b2b4bb32b91034b6b83632b6b2b73a32b960711b606482015260840162000194565b505050565b6001600160a01b038216620004ae5760405162461bcd60e51b815260206004820181905260248201527f4552433732313a206d696e7420746f20746865207a65726f2061646472657373604482015260640162000194565b6000818152600260205260409020546001600160a01b031615620005155760405162461bcd60e51b815260206004820152601c60248201527f4552433732313a20746f6b656e20616c7265616479206d696e74656400000000604482015260640162000194565b620005236000838362000715565b6001600160a01b03821660009081526003602052604081208054600192906200054e90849062000ca5565b909155505060008181526002602052604080822080546001600160a01b0319166001600160a01b03861690811790915590518392907fddf252ad1be2c89b69c2b068fc378daa952ba7f163c4a11628f55a4df523b3ef908290a45050565b6000620005cd846001600160a01b0316620007f160201b6200172a1760201c565b156200070957604051630a85bd0160e11b81526001600160a01b0385169063150b7a02906200060790339089908890889060040162000c4f565b602060405180830381600087803b1580156200062257600080fd5b505af192505050801562000655575060408051601f3d908101601f19168201909252620006529181019062000b91565b60015b620006ee573d80801562000686576040519150601f19603f3d011682016040523d82523d6000602084013e6200068b565b606091505b508051620006e65760405162461bcd60e51b815260206004820152603260248201526000805160206200371f83398151915260448201527131b2b4bb32b91034b6b83632b6b2b73a32b960711b606482015260840162000194565b805181602001fd5b6001600160e01b031916630a85bd0160e11b1490506200070d565b5060015b949350505050565b6200072d8383836200045160201b620009e11760201c565b6001600160a01b0383166200078b576200078581600880546000838152600960205260408120829055600182018355919091527ff3f7a9fe364faab93b216da50a3214154f22a0a2b415b23a84c8169e8b636ee30155565b620007b1565b816001600160a01b0316836001600160a01b031614620007b157620007b18382620007f7565b6001600160a01b038216620007cb576200045181620008a4565b826001600160a01b0316826001600160a01b031614620004515762000451828262000982565b3b151590565b600060016200081184620009d360201b620012291760201c565b6200081d919062000ce2565b60008381526007602052604090205490915080821462000871576001600160a01b03841660009081526006602090815260408083208584528252808320548484528184208190558352600790915290208190555b5060009182526007602090815260408084208490556001600160a01b039094168352600681528383209183525290812055565b600854600090620008b89060019062000ce2565b60008381526009602052604081205460088054939450909284908110620008ef57634e487b7160e01b600052603260045260246000fd5b9060005260206000200154905080600883815481106200091f57634e487b7160e01b600052603260045260246000fd5b60009182526020808320909101929092558281526009909152604080822084905585825281205560088054806200096657634e487b7160e01b600052603160045260246000fd5b6001900381819060005260206000200160009055905550505050565b60006200099a83620009d360201b620012291760201c565b6001600160a01b039093166000908152600660209081526040808320868452825280832085905593825260079052919091209190915550565b60006001600160a01b03821662000a405760405162461bcd60e51b815260206004820152602a60248201527f4552433732313a2062616c616e636520717565727920666f7220746865207a65604482015269726f206164647265737360b01b606482015260840162000194565b506001600160a01b031660009081526003602052604090205490565b82805462000a6a9062000d2b565b90600052602060002090601f01602090048101928262000a8e576000855562000ad9565b82601f1062000aa957805160ff191683800117855562000ad9565b8280016001018555821562000ad9579182015b8281111562000ad957825182559160200191906001019062000abc565b5062000ae792915062000aeb565b5090565b5b8082111562000ae7576000815560010162000aec565b600082601f83011262000b13578081fd5b81516001600160401b038082111562000b305762000b3062000d9c565b604051601f8301601f19908116603f0116810190828211818310171562000b5b5762000b5b62000d9c565b8160405283815286602085880101111562000b74578485fd5b62000b8784602083016020890162000cfc565b9695505050505050565b60006020828403121562000ba3578081fd5b81516001600160e01b03198116811462000bbb578182fd5b9392505050565b60008060006060848603121562000bd7578182fd5b83516001600160401b038082111562000bee578384fd5b62000bfc8783880162000b02565b9450602086015191508082111562000c12578384fd5b62000c208783880162000b02565b9350604086015191508082111562000c36578283fd5b5062000c458682870162000b02565b9150509250925092565b600060018060a01b03808716835280861660208401525083604083015260806060830152825180608084015262000c8e8160a085016020870162000cfc565b601f01601f19169190910160a00195945050505050565b6000821982111562000cbb5762000cbb62000d86565b500190565b600081600019048311821515161562000cdd5762000cdd62000d86565b500290565b60008282101562000cf75762000cf762000d86565b500390565b60005b8381101562000d1957818101518382015260200162000cff565b83811115620003b65750506000910152565b600181811c9082168062000d4057607f821691505b6020821081141562000d6257634e487b7160e01b600052602260045260246000fd5b50919050565b600060001982141562000d7f5762000d7f62000d86565b5060010190565b634e487b7160e01b600052601160045260246000fd5b634e487b7160e01b600052604160045260246000fd5b61295d8062000dc26000396000f3fe60806040526004361061024f5760003560e01c806355f804b311610138578063a22cb465116100b0578063d5abeb011161007f578063da3ef23f11610064578063da3ef23f1461064e578063e985e9c51461066e578063f2fde38b146106b757600080fd5b8063d5abeb0114610608578063d936547e1461061e57600080fd5b8063a22cb46514610593578063b88d4fde146105b3578063c6682862146105d3578063c87b56dd146105e857600080fd5b806370a08231116101075780637f00c7a6116100ec5780637f00c7a6146105405780638da5cb5b1461056057806395d89b411461057e57600080fd5b806370a082311461050b578063715018a61461052b57600080fd5b806355f804b31461049c5780635c975abb146104bc5780636352211e146104d65780636c0360eb146104f657600080fd5b80632f745c59116101cb57806342842e0e1161019a57806344a0d68a1161017f57806344a0d68a1461043c5780634a4c560d1461045c5780634f6ccce71461047c57600080fd5b806342842e0e146103ef578063438b63001461040f57600080fd5b80632f745c591461039457806330cc7ae0146103b45780633ccfd60b146103d457806340c10f19146103dc57600080fd5b8063095ea7b31161022257806318160ddd1161020757806318160ddd14610349578063239c70ae1461035e57806323b872dd1461037457600080fd5b8063095ea7b31461030557806313faede61461032557600080fd5b806301ffc9a71461025457806302329a291461028957806306fdde03146102ab578063081812fc146102cd575b600080fd5b34801561026057600080fd5b5061027461026f3660046125c0565b6106d7565b60405190151581526020015b60405180910390f35b34801561029557600080fd5b506102a96102a43660046125a6565b61071b565b005b3480156102b757600080fd5b506102c061078d565b60405161028091906127c4565b3480156102d957600080fd5b506102ed6102e836600461263e565b61081f565b6040516001600160a01b039091168152602001610280565b34801561031157600080fd5b506102a961032036600461257d565b6108b4565b34801561033157600080fd5b5061033b600d5481565b604051908152602001610280565b34801561035557600080fd5b5060085461033b565b34801561036a57600080fd5b5061033b600f5481565b34801561038057600080fd5b506102a961038f3660046124a0565b6109e6565b3480156103a057600080fd5b5061033b6103af36600461257d565b610a6d565b3480156103c057600080fd5b506102a96103cf366004612454565b610b15565b6102a9610b90565b6102a96103ea36600461257d565b610c10565b3480156103fb57600080fd5b506102a961040a3660046124a0565b610e37565b34801561041b57600080fd5b5061042f61042a366004612454565b610e52565b6040516102809190612780565b34801561044857600080fd5b506102a961045736600461263e565b610f10565b34801561046857600080fd5b506102a9610477366004612454565b610f6f565b34801561048857600080fd5b5061033b61049736600461263e565b610fed565b3480156104a857600080fd5b506102a96104b73660046125f8565b61109f565b3480156104c857600080fd5b506010546102749060ff1681565b3480156104e257600080fd5b506102ed6104f136600461263e565b611110565b34801561050257600080fd5b506102c061119b565b34801561051757600080fd5b5061033b610526366004612454565b611229565b34801561053757600080fd5b506102a96112c3565b34801561054c57600080fd5b506102a961055b36600461263e565b611327565b34801561056c57600080fd5b50600a546001600160a01b03166102ed565b34801561058a57600080fd5b506102c0611386565b34801561059f57600080fd5b506102a96105ae366004612554565b611395565b3480156105bf57600080fd5b506102a96105ce3660046124db565b61145a565b3480156105df57600080fd5b506102c06114e2565b3480156105f457600080fd5b506102c061060336600461263e565b6114ef565b34801561061457600080fd5b5061033b600e5481565b34801561062a57600080fd5b50610274610639366004612454565b60116020526000908152604090205460ff1681565b34801561065a57600080fd5b506102a96106693660046125f8565b6115db565b34801561067a57600080fd5b5061027461068936600461246e565b6001600160a01b03918216600090815260056020908152604080832093909416825291909152205460ff1690565b3480156106c357600080fd5b506102a96106d2366004612454565b611648565b60006001600160e01b031982167f780e9d63000000000000000000000000000000000000000000000000000000001480610715575061071582611730565b92915050565b600a546001600160a01b0316331461077a5760405162461bcd60e51b815260206004820181905260248201527f4f776e61626c653a2063616c6c6572206973206e6f7420746865206f776e657260448201526064015b60405180910390fd5b6010805460ff1916911515919091179055565b60606000805461079c90612865565b80601f01602080910402602001604051908101604052809291908181526020018280546107c890612865565b80156108155780601f106107ea57610100808354040283529160200191610815565b820191906000526020600020905b8154815290600101906020018083116107f857829003601f168201915b5050505050905090565b6000818152600260205260408120546001600160a01b03166108985760405162461bcd60e51b815260206004820152602c60248201527f4552433732313a20617070726f76656420717565727920666f72206e6f6e657860448201526b34b9ba32b73a103a37b5b2b760a11b6064820152608401610771565b506000908152600460205260409020546001600160a01b031690565b60006108bf82611110565b9050806001600160a01b0316836001600160a01b031614156109495760405162461bcd60e51b815260206004820152602160248201527f4552433732313a20617070726f76616c20746f2063757272656e74206f776e6560448201527f72000000000000000000000000000000000000000000000000000000000000006064820152608401610771565b336001600160a01b038216148061096557506109658133610689565b6109d75760405162461bcd60e51b815260206004820152603860248201527f4552433732313a20617070726f76652063616c6c6572206973206e6f74206f7760448201527f6e6572206e6f7220617070726f76656420666f7220616c6c00000000000000006064820152608401610771565b6109e183836117cb565b505050565b6109f03382611846565b610a625760405162461bcd60e51b815260206004820152603160248201527f4552433732313a207472616e736665722063616c6c6572206973206e6f74206f60448201527f776e6572206e6f7220617070726f7665640000000000000000000000000000006064820152608401610771565b6109e183838361193d565b6000610a7883611229565b8210610aec5760405162461bcd60e51b815260206004820152602b60248201527f455243373231456e756d657261626c653a206f776e657220696e646578206f7560448201527f74206f6620626f756e64730000000000000000000000000000000000000000006064820152608401610771565b506001600160a01b03919091166000908152600660209081526040808320938352929052205490565b600a546001600160a01b03163314610b6f5760405162461bcd60e51b815260206004820181905260248201527f4f776e61626c653a2063616c6c6572206973206e6f7420746865206f776e65726044820152606401610771565b6001600160a01b03166000908152601160205260409020805460ff19169055565b600a546001600160a01b03163314610bea5760405162461bcd60e51b815260206004820181905260248201527f4f776e61626c653a2063616c6c6572206973206e6f7420746865206f776e65726044820152606401610771565b60405133904780156108fc02916000818181858888f19350505050610c0e57600080fd5b565b6000610c1b60085490565b60105490915060ff1615610c715760405162461bcd60e51b815260206004820152601160248201527f4d696e74696e67206973207061757365640000000000000000000000000000006044820152606401610771565b60008211610ce75760405162461bcd60e51b815260206004820152602560248201527f4d696e7420616d6f756e74206d7573742062652067726561746572207468616e60448201527f207a65726f0000000000000000000000000000000000000000000000000000006064820152608401610771565b600f54821115610d5f5760405162461bcd60e51b815260206004820152602860248201527f4d696e7420616d6f756e74206d757374206265206c657373207468616e20746860448201527f65206d61782033300000000000000000000000000000000000000000000000006064820152608401610771565b600e54610d6c83836127d7565b1115610dba5760405162461bcd60e51b815260206004820152601b60248201527f4d696e7420616d6f756e7420657863656564656420737570706c7900000000006044820152606401610771565b600a546001600160a01b03163314610e02573360009081526011602052604090205460ff161515600114610e025781600d54610df69190612803565b341015610e0257600080fd5b60015b828111610e3157610e1f84610e1a83856127d7565b611b22565b80610e29816128a0565b915050610e05565b50505050565b6109e18383836040518060200160405280600081525061145a565b60606000610e5f83611229565b905060008167ffffffffffffffff811115610e8a57634e487b7160e01b600052604160045260246000fd5b604051908082528060200260200182016040528015610eb3578160200160208202803683370190505b50905060005b82811015610f0857610ecb8582610a6d565b828281518110610eeb57634e487b7160e01b600052603260045260246000fd5b602090810291909101015280610f00816128a0565b915050610eb9565b509392505050565b600a546001600160a01b03163314610f6a5760405162461bcd60e51b815260206004820181905260248201527f4f776e61626c653a2063616c6c6572206973206e6f7420746865206f776e65726044820152606401610771565b600d55565b600a546001600160a01b03163314610fc95760405162461bcd60e51b815260206004820181905260248201527f4f776e61626c653a2063616c6c6572206973206e6f7420746865206f776e65726044820152606401610771565b6001600160a01b03166000908152601160205260409020805460ff19166001179055565b6000610ff860085490565b821061106c5760405162461bcd60e51b815260206004820152602c60248201527f455243373231456e756d657261626c653a20676c6f62616c20696e646578206f60448201527f7574206f6620626f756e647300000000000000000000000000000000000000006064820152608401610771565b6008828154811061108d57634e487b7160e01b600052603260045260246000fd5b90600052602060002001549050919050565b600a546001600160a01b031633146110f95760405162461bcd60e51b815260206004820181905260248201527f4f776e61626c653a2063616c6c6572206973206e6f7420746865206f776e65726044820152606401610771565b805161110c90600b906020840190612319565b5050565b6000818152600260205260408120546001600160a01b0316806107155760405162461bcd60e51b815260206004820152602960248201527f4552433732313a206f776e657220717565727920666f72206e6f6e657869737460448201527f656e7420746f6b656e00000000000000000000000000000000000000000000006064820152608401610771565b600b80546111a890612865565b80601f01602080910402602001604051908101604052809291908181526020018280546111d490612865565b80156112215780601f106111f657610100808354040283529160200191611221565b820191906000526020600020905b81548152906001019060200180831161120457829003601f168201915b505050505081565b60006001600160a01b0382166112a75760405162461bcd60e51b815260206004820152602a60248201527f4552433732313a2062616c616e636520717565727920666f7220746865207a6560448201527f726f2061646472657373000000000000000000000000000000000000000000006064820152608401610771565b506001600160a01b031660009081526003602052604090205490565b600a546001600160a01b0316331461131d5760405162461bcd60e51b815260206004820181905260248201527f4f776e61626c653a2063616c6c6572206973206e6f7420746865206f776e65726044820152606401610771565b610c0e6000611b3c565b600a546001600160a01b031633146113815760405162461bcd60e51b815260206004820181905260248201527f4f776e61626c653a2063616c6c6572206973206e6f7420746865206f776e65726044820152606401610771565b600f55565b60606001805461079c90612865565b6001600160a01b0382163314156113ee5760405162461bcd60e51b815260206004820152601960248201527f4552433732313a20617070726f766520746f2063616c6c6572000000000000006044820152606401610771565b3360008181526005602090815260408083206001600160a01b03871680855290835292819020805460ff191686151590811790915590519081529192917f17307eab39ab6107e8899845ad3d59bd9653f200f220920489ca2b5937696c31910160405180910390a35050565b6114643383611846565b6114d65760405162461bcd60e51b815260206004820152603160248201527f4552433732313a207472616e736665722063616c6c6572206973206e6f74206f60448201527f776e6572206e6f7220617070726f7665640000000000000000000000000000006064820152608401610771565b610e3184848484611b9b565b600c80546111a890612865565b6000818152600260205260409020546060906001600160a01b031661157c5760405162461bcd60e51b815260206004820152602f60248201527f4552433732314d657461646174613a2055524920717565727920666f72206e6f60448201527f6e6578697374656e7420746f6b656e00000000000000000000000000000000006064820152608401610771565b6000611586611c19565b905060008151116115a657604051806020016040528060008152506115d4565b806115b084611c28565b600c6040516020016115c493929190612682565b6040516020818303038152906040525b9392505050565b600a546001600160a01b031633146116355760405162461bcd60e51b815260206004820181905260248201527f4f776e61626c653a2063616c6c6572206973206e6f7420746865206f776e65726044820152606401610771565b805161110c90600c906020840190612319565b600a546001600160a01b031633146116a25760405162461bcd60e51b815260206004820181905260248201527f4f776e61626c653a2063616c6c6572206973206e6f7420746865206f776e65726044820152606401610771565b6001600160a01b03811661171e5760405162461bcd60e51b815260206004820152602660248201527f4f776e61626c653a206e6577206f776e657220697320746865207a65726f206160448201527f64647265737300000000000000000000000000000000000000000000000000006064820152608401610771565b61172781611b3c565b50565b3b151590565b60006001600160e01b031982167f80ac58cd00000000000000000000000000000000000000000000000000000000148061179357506001600160e01b031982167f5b5e139f00000000000000000000000000000000000000000000000000000000145b8061071557507f01ffc9a7000000000000000000000000000000000000000000000000000000006001600160e01b0319831614610715565b6000818152600460205260409020805473ffffffffffffffffffffffffffffffffffffffff19166001600160a01b038416908117909155819061180d82611110565b6001600160a01b03167f8c5be1e5ebec7d5bd14f71427d1e84f3dd0314c0f7b2291e5b200ac8c7c3b92560405160405180910390a45050565b6000818152600260205260408120546001600160a01b03166118bf5760405162461bcd60e51b815260206004820152602c60248201527f4552433732313a206f70657261746f7220717565727920666f72206e6f6e657860448201526b34b9ba32b73a103a37b5b2b760a11b6064820152608401610771565b60006118ca83611110565b9050806001600160a01b0316846001600160a01b031614806119055750836001600160a01b03166118fa8461081f565b6001600160a01b0316145b8061193557506001600160a01b0380821660009081526005602090815260408083209388168352929052205460ff165b949350505050565b826001600160a01b031661195082611110565b6001600160a01b0316146119cc5760405162461bcd60e51b815260206004820152602960248201527f4552433732313a207472616e73666572206f6620746f6b656e2074686174206960448201527f73206e6f74206f776e00000000000000000000000000000000000000000000006064820152608401610771565b6001600160a01b038216611a475760405162461bcd60e51b8152602060048201526024808201527f4552433732313a207472616e7366657220746f20746865207a65726f2061646460448201527f72657373000000000000000000000000000000000000000000000000000000006064820152608401610771565b611a52838383611d76565b611a5d6000826117cb565b6001600160a01b0383166000908152600360205260408120805460019290611a86908490612822565b90915550506001600160a01b0382166000908152600360205260408120805460019290611ab49084906127d7565b9091555050600081815260026020526040808220805473ffffffffffffffffffffffffffffffffffffffff19166001600160a01b0386811691821790925591518493918716917fddf252ad1be2c89b69c2b068fc378daa952ba7f163c4a11628f55a4df523b3ef91a4505050565b61110c828260405180602001604052806000815250611e2e565b600a80546001600160a01b0383811673ffffffffffffffffffffffffffffffffffffffff19831681179093556040519116919082907f8be0079c531659141344cd1fd0a4f28419497f9722a3daafe3b4186f6b6457e090600090a35050565b611ba684848461193d565b611bb284848484611eac565b610e315760405162461bcd60e51b815260206004820152603260248201527f4552433732313a207472616e7366657220746f206e6f6e20455243373231526560448201527131b2b4bb32b91034b6b83632b6b2b73a32b960711b6064820152608401610771565b6060600b805461079c90612865565b606081611c6857505060408051808201909152600181527f3000000000000000000000000000000000000000000000000000000000000000602082015290565b8160005b8115611c925780611c7c816128a0565b9150611c8b9050600a836127ef565b9150611c6c565b60008167ffffffffffffffff811115611cbb57634e487b7160e01b600052604160045260246000fd5b6040519080825280601f01601f191660200182016040528015611ce5576020820181803683370190505b5090505b841561193557611cfa600183612822565b9150611d07600a866128bb565b611d129060306127d7565b60f81b818381518110611d3557634e487b7160e01b600052603260045260246000fd5b60200101907effffffffffffffffffffffffffffffffffffffffffffffffffffffffffffff1916908160001a905350611d6f600a866127ef565b9450611ce9565b6001600160a01b038316611dd157611dcc81600880546000838152600960205260408120829055600182018355919091527ff3f7a9fe364faab93b216da50a3214154f22a0a2b415b23a84c8169e8b636ee30155565b611df4565b816001600160a01b0316836001600160a01b031614611df457611df48382612004565b6001600160a01b038216611e0b576109e1816120a1565b826001600160a01b0316826001600160a01b0316146109e1576109e1828261217a565b611e3883836121be565b611e456000848484611eac565b6109e15760405162461bcd60e51b815260206004820152603260248201527f4552433732313a207472616e7366657220746f206e6f6e20455243373231526560448201527131b2b4bb32b91034b6b83632b6b2b73a32b960711b6064820152608401610771565b60006001600160a01b0384163b15611ff957604051630a85bd0160e11b81526001600160a01b0385169063150b7a0290611ef0903390899088908890600401612744565b602060405180830381600087803b158015611f0a57600080fd5b505af1925050508015611f3a575060408051601f3d908101601f19168201909252611f37918101906125dc565b60015b611fdf573d808015611f68576040519150601f19603f3d011682016040523d82523d6000602084013e611f6d565b606091505b508051611fd75760405162461bcd60e51b815260206004820152603260248201527f4552433732313a207472616e7366657220746f206e6f6e20455243373231526560448201527131b2b4bb32b91034b6b83632b6b2b73a32b960711b6064820152608401610771565b805181602001fd5b6001600160e01b031916630a85bd0160e11b149050611935565b506001949350505050565b6000600161201184611229565b61201b9190612822565b60008381526007602052604090205490915080821461206e576001600160a01b03841660009081526006602090815260408083208584528252808320548484528184208190558352600790915290208190555b5060009182526007602090815260408084208490556001600160a01b039094168352600681528383209183525290812055565b6008546000906120b390600190612822565b600083815260096020526040812054600880549394509092849081106120e957634e487b7160e01b600052603260045260246000fd5b90600052602060002001549050806008838154811061211857634e487b7160e01b600052603260045260246000fd5b600091825260208083209091019290925582815260099091526040808220849055858252812055600880548061215e57634e487b7160e01b600052603160045260246000fd5b6001900381819060005260206000200160009055905550505050565b600061218583611229565b6001600160a01b039093166000908152600660209081526040808320868452825280832085905593825260079052919091209190915550565b6001600160a01b0382166122145760405162461bcd60e51b815260206004820181905260248201527f4552433732313a206d696e7420746f20746865207a65726f20616464726573736044820152606401610771565b6000818152600260205260409020546001600160a01b0316156122795760405162461bcd60e51b815260206004820152601c60248201527f4552433732313a20746f6b656e20616c7265616479206d696e746564000000006044820152606401610771565b61228560008383611d76565b6001600160a01b03821660009081526003602052604081208054600192906122ae9084906127d7565b9091555050600081815260026020526040808220805473ffffffffffffffffffffffffffffffffffffffff19166001600160a01b03861690811790915590518392907fddf252ad1be2c89b69c2b068fc378daa952ba7f163c4a11628f55a4df523b3ef908290a45050565b82805461232590612865565b90600052602060002090601f016020900481019282612347576000855561238d565b82601f1061236057805160ff191683800117855561238d565b8280016001018555821561238d579182015b8281111561238d578251825591602001919060010190612372565b5061239992915061239d565b5090565b5b80821115612399576000815560010161239e565b600067ffffffffffffffff808411156123cd576123cd6128fb565b604051601f8501601f19908116603f011681019082821181831017156123f5576123f56128fb565b8160405280935085815286868601111561240e57600080fd5b858560208301376000602087830101525050509392505050565b80356001600160a01b038116811461243f57600080fd5b919050565b8035801515811461243f57600080fd5b600060208284031215612465578081fd5b6115d482612428565b60008060408385031215612480578081fd5b61248983612428565b915061249760208401612428565b90509250929050565b6000806000606084860312156124b4578081fd5b6124bd84612428565b92506124cb60208501612428565b9150604084013590509250925092565b600080600080608085870312156124f0578081fd5b6124f985612428565b935061250760208601612428565b925060408501359150606085013567ffffffffffffffff811115612529578182fd5b8501601f81018713612539578182fd5b612548878235602084016123b2565b91505092959194509250565b60008060408385031215612566578182fd5b61256f83612428565b915061249760208401612444565b6000806040838503121561258f578182fd5b61259883612428565b946020939093013593505050565b6000602082840312156125b7578081fd5b6115d482612444565b6000602082840312156125d1578081fd5b81356115d481612911565b6000602082840312156125ed578081fd5b81516115d481612911565b600060208284031215612609578081fd5b813567ffffffffffffffff81111561261f578182fd5b8201601f8101841361262f578182fd5b611935848235602084016123b2565b60006020828403121561264f578081fd5b5035919050565b6000815180845261266e816020860160208601612839565b601f01601f19169290920160200192915050565b6000845160206126958285838a01612839565b8551918401916126a88184848a01612839565b85549201918390600181811c90808316806126c457607f831692505b8583108114156126e257634e487b7160e01b88526022600452602488fd5b8080156126f6576001811461270757612733565b60ff19851688528388019550612733565b60008b815260209020895b8581101561272b5781548a820152908401908801612712565b505083880195505b50939b9a5050505050505050505050565b60006001600160a01b038087168352808616602084015250836040830152608060608301526127766080830184612656565b9695505050505050565b6020808252825182820181905260009190848201906040850190845b818110156127b85783518352928401929184019160010161279c565b50909695505050505050565b6020815260006115d46020830184612656565b600082198211156127ea576127ea6128cf565b500190565b6000826127fe576127fe6128e5565b500490565b600081600019048311821515161561281d5761281d6128cf565b500290565b600082821015612834576128346128cf565b500390565b60005b8381101561285457818101518382015260200161283c565b83811115610e315750506000910152565b600181811c9082168061287957607f821691505b6020821081141561289a57634e487b7160e01b600052602260045260246000fd5b50919050565b60006000198214156128b4576128b46128cf565b5060010190565b6000826128ca576128ca6128e5565b500690565b634e487b7160e01b600052601160045260246000fd5b634e487b7160e01b600052601260045260246000fd5b634e487b7160e01b600052604160045260246000fd5b6001600160e01b03198116811461172757600080fdfea2646970667358221220a04f3002722f826ce0e219ecb12ca1892cd861339a4fb15a4ff1f3d20e4e2e9664736f6c634300080400334552433732313a207472616e7366657220746f206e6f6e204552433732315265",
  "linkReferences": {},
  "deployedLinkReferences": {}
}