{
  "_format": "hh-sol-artifact-1",
  "contractName": "DLMarket",
  "sourceName": "contracts/DLMarket.sol",
  "abi": [
    {
      "inputs": [],
      "stateMutability": "nonpayable",
      "type": "constructor"
    },
    {
      "anonymous": false,
      "inputs": [
        {
          "indexed": true,
          "internalType": "uint256",
          "name": "itemId",
          "type": "uint256"
        },
        {
          "indexed": true,
          "internalType": "address",
          "name": "nftContract",
          "type": "address"
        },
        {
          "indexed": true,
          "internalType": "uint256",
          "name": "tokenId",
          "type": "uint256"
        },
        {
          "indexed": false,
          "internalType": "address",
          "name": "seller",
          "type": "address"
        },
        {
          "indexed": false,
          "internalType": "address",
          "name": "owner",
          "type": "address"
        },
        {
          "indexed": false,
          "internalType": "uint256",
          "name": "price",
          "type": "uint256"
        },
        {
          "indexed": false,
          "internalType": "bool",
          "name": "sold",
          "type": "bool"
        }
      ],
      "name": "MarketItemCreated",
      "type": "event"
    },
    {
      "inputs": [
        {
          "internalType": "address",
          "name": "nftContract",
          "type": "address"
        },
        {
          "internalType": "uint256",
          "name": "tokenId",
          "type": "uint256"
        },
        {
          "internalType": "uint256",
          "name": "price",
          "type": "uint256"
        }
      ],
      "name": "createMarketItem",
      "outputs": [],
      "stateMutability": "payable",
      "type": "function"
    },
    {
      "inputs": [
        {
          "internalType": "address",
          "name": "nftContract",
          "type": "address"
        },
        {
          "internalType": "uint256",
          "name": "itemId",
          "type": "uint256"
        }
      ],
      "name": "createMarketSale",
      "outputs": [],
      "stateMutability": "payable",
      "type": "function"
    },
    {
      "inputs": [],
      "name": "fetchItemsCreated",
      "outputs": [
        {
          "components": [
            {
              "internalType": "uint256",
              "name": "itemId",
              "type": "uint256"
            },
            {
              "internalType": "address",
              "name": "nftContract",
              "type": "address"
            },
            {
              "internalType": "uint256",
              "name": "tokenId",
              "type": "uint256"
            },
            {
              "internalType": "address payable",
              "name": "seller",
              "type": "address"
            },
            {
              "internalType": "address payable",
              "name": "owner",
              "type": "address"
            },
            {
              "internalType": "uint256",
              "name": "price",
              "type": "uint256"
            },
            {
              "internalType": "bool",
              "name": "sold",
              "type": "bool"
            }
          ],
          "internalType": "struct DLMarket.MarketItem[]",
          "name": "",
          "type": "tuple[]"
        }
      ],
      "stateMutability": "view",
      "type": "function"
    },
    {
      "inputs": [],
      "name": "fetchMarketItems",
      "outputs": [
        {
          "components": [
            {
              "internalType": "uint256",
              "name": "itemId",
              "type": "uint256"
            },
            {
              "internalType": "address",
              "name": "nftContract",
              "type": "address"
            },
            {
              "internalType": "uint256",
              "name": "tokenId",
              "type": "uint256"
            },
            {
              "internalType": "address payable",
              "name": "seller",
              "type": "address"
            },
            {
              "internalType": "address payable",
              "name": "owner",
              "type": "address"
            },
            {
              "internalType": "uint256",
              "name": "price",
              "type": "uint256"
            },
            {
              "internalType": "bool",
              "name": "sold",
              "type": "bool"
            }
          ],
          "internalType": "struct DLMarket.MarketItem[]",
          "name": "",
          "type": "tuple[]"
        }
      ],
      "stateMutability": "view",
      "type": "function"
    },
    {
      "inputs": [],
      "name": "fetchMyNFTs",
      "outputs": [
        {
          "components": [
            {
              "internalType": "uint256",
              "name": "itemId",
              "type": "uint256"
            },
            {
              "internalType": "address",
              "name": "nftContract",
              "type": "address"
            },
            {
              "internalType": "uint256",
              "name": "tokenId",
              "type": "uint256"
            },
            {
              "internalType": "address payable",
              "name": "seller",
              "type": "address"
            },
            {
              "internalType": "address payable",
              "name": "owner",
              "type": "address"
            },
            {
              "internalType": "uint256",
              "name": "price",
              "type": "uint256"
            },
            {
              "internalType": "bool",
              "name": "sold",
              "type": "bool"
            }
          ],
          "internalType": "struct DLMarket.MarketItem[]",
          "name": "",
          "type": "tuple[]"
        }
      ],
      "stateMutability": "view",
      "type": "function"
    },
    {
      "inputs": [],
      "name": "getListingPrice",
      "outputs": [
        {
          "internalType": "uint256",
          "name": "",
          "type": "uint256"
        }
      ],
      "stateMutability": "view",
      "type": "function"
    }
  ],
  "bytecode": "0x60806040526658d15e1762800060045534801561001b57600080fd5b506001600055600380546001600160a01b03191633179055610edb806100426000396000f3fe6080604052600436106100655760003560e01c806358eb2df51161004357806358eb2df5146100c8578063c23b139e146100dd578063f064c32e146100f057600080fd5b80630f08efe01461006a57806312e8558514610095578063202e3740146100b3575b600080fd5b34801561007657600080fd5b5061007f610105565b60405161008c9190610d26565b60405180910390f35b3480156100a157600080fd5b5060045460405190815260200161008c565b3480156100bf57600080fd5b5061007f610302565b6100db6100d6366004610cf4565b610515565b005b6100db6100eb366004610ccb565b6107db565b3480156100fc57600080fd5b5061007f610a04565b6060600061011260015490565b9050600061011f60025490565b60015461012c9190610e2d565b90506000610152604051806060016040528060308152602001610e766030913983610c17565b60008267ffffffffffffffff81111561017b57634e487b7160e01b600052604160045260246000fd5b6040519080825280602002602001820160405280156101e257816020015b6040805160e08101825260008082526020808301829052928201819052606082018190526080820181905260a0820181905260c082015282526000199092019101816101995790505b50905060005b848110156102f9576000600581610200846001610e15565b81526020810191909152604001600020600401546001600160a01b031614156102e7576000600581610233846001610e15565b81526020808201929092526040908101600020815160e0810183528154815260018201546001600160a01b039081169482019490945260028201549281019290925260038101548316606083015260048101549092166080820152600582015460a0820152600682015460ff16151560c08201528451919250908490869081106102cd57634e487b7160e01b600052603260045260246000fd5b60209081029190910101526102e3600185610e15565b9350505b806102f181610e44565b9150506101e8565b50949350505050565b6060600061030f60015490565b905060008060005b8381101561037257336005600061032f846001610e15565b81526020810191909152604001600020600401546001600160a01b031614156103605761035d600184610e15565b92505b8061036a81610e44565b915050610317565b5060008267ffffffffffffffff81111561039c57634e487b7160e01b600052604160045260246000fd5b60405190808252806020026020018201604052801561040357816020015b6040805160e08101825260008082526020808301829052928201819052606082018190526080820181905260a0820181905260c082015282526000199092019101816103ba5790505b50905060005b848110156102f9573360056000610421846001610e15565b81526020810191909152604001600020600401546001600160a01b031614156105035760056000610453836001610e15565b81526020808201929092526040908101600020815160e0810183528154815260018201546001600160a01b039081169482019490945260028201549281019290925260038101548316606083015260048101549092166080820152600582015460a082015260069091015460ff16151560c082015282518390859081106104ea57634e487b7160e01b600052603260045260246000fd5b6020908102919091010152610500600184610e15565b92505b8061050d81610e44565b915050610409565b6002600054141561056d5760405162461bcd60e51b815260206004820152601f60248201527f5265656e7472616e637947756172643a207265656e7472616e742063616c6c0060448201526064015b60405180910390fd5b6002600055806105bf5760405162461bcd60e51b815260206004820152601c60248201527f5072696365206d757374206265206174206c65617374203120776569000000006044820152606401610564565b60045434146106355760405162461bcd60e51b8152602060048201526024808201527f5072696365206d75737420626520657175616c20746f206c697374696e67207060448201527f72696365000000000000000000000000000000000000000000000000000000006064820152608401610564565b610643600180546001019055565b600061064e60015490565b6040805160e0810182528281526001600160a01b0387811660208084018281528486018a8152336060870181815260006080890181815260a08a018e815260c08b018381528d8452600598899052928c90209a518b55955160018b018054918b1673ffffffffffffffffffffffffffffffffffffffff19928316179055945160028b0155915160038a018054918a1691861691909117905590516004808a01805492909916919094161790965591519286019290925592516006909401805494151560ff199095169490941790935592516323b872dd60e01b81529182015230602482015260448101869052919250906323b872dd90606401600060405180830381600087803b15801561076157600080fd5b505af1158015610775573d6000803e3d6000fd5b505060408051338152600060208201819052818301879052606082015290518693506001600160a01b038816925084917f045dfa01dcba2b36aba1d3dc4a874f4b0c5d2fbeb8d2c4b34a7d88c8d8f929d1919081900360800190a4505060016000555050565b6002600054141561082e5760405162461bcd60e51b815260206004820152601f60248201527f5265656e7472616e637947756172643a207265656e7472616e742063616c6c006044820152606401610564565b60026000818155828152600560208190526040909120908101549101543482146108c2576040805162461bcd60e51b81526020600482015260248101919091527f506c65617365207375626d6974207468652061736b696e67207072696365206960448201527f6e206f7264657220746f20636f6d706c657465207468652070757263686173656064820152608401610564565b6000838152600560205260408082206003015490516001600160a01b03909116913480156108fc02929091818181858888f1935050505015801561090a573d6000803e3d6000fd5b506040516323b872dd60e01b8152306004820152336024820152604481018290526001600160a01b038516906323b872dd90606401600060405180830381600087803b15801561095957600080fd5b505af115801561096d573d6000803e3d6000fd5b505050600084815260056020526040902060048101805473ffffffffffffffffffffffffffffffffffffffff191633179055600601805460ff19166001179055506109bc600280546001019055565b6003546004546040516001600160a01b039092169181156108fc0291906000818181858888f193505050501580156109f8573d6000803e3d6000fd5b50506001600055505050565b60606000610a1160015490565b905060008060005b83811015610a74573360056000610a31846001610e15565b81526020810191909152604001600020600301546001600160a01b03161415610a6257610a5f600184610e15565b92505b80610a6c81610e44565b915050610a19565b5060008267ffffffffffffffff811115610a9e57634e487b7160e01b600052604160045260246000fd5b604051908082528060200260200182016040528015610b0557816020015b6040805160e08101825260008082526020808301829052928201819052606082018190526080820181905260a0820181905260c08201528252600019909201910181610abc5790505b50905060005b848110156102f9573360056000610b23846001610e15565b81526020810191909152604001600020600301546001600160a01b03161415610c055760056000610b55836001610e15565b81526020808201929092526040908101600020815160e0810183528154815260018201546001600160a01b039081169482019490945260028201549281019290925260038101548316606083015260048101549092166080820152600582015460a082015260069091015460ff16151560c08201528251839085908110610bec57634e487b7160e01b600052603260045260246000fd5b6020908102919091010152610c02600184610e15565b92505b80610c0f81610e44565b915050610b0b565b610c8a8282604051602401610c2d929190610dba565b60408051601f198184030181529190526020810180517bffffffffffffffffffffffffffffffffffffffffffffffffffffffff167f9710a9d000000000000000000000000000000000000000000000000000000000179052610c8e565b5050565b80516a636f6e736f6c652e6c6f67602083016000808483855afa5050505050565b80356001600160a01b0381168114610cc657600080fd5b919050565b60008060408385031215610cdd578182fd5b610ce683610caf565b946020939093013593505050565b600080600060608486031215610d08578081fd5b610d1184610caf565b95602085013595506040909401359392505050565b602080825282518282018190526000919060409081850190868401855b82811015610dad57815180518552868101516001600160a01b039081168887015286820151878701526060808301518216908701526080808301519091169086015260a0808201519086015260c09081015115159085015260e09093019290850190600101610d43565b5091979650505050505050565b6040815260008351806040840152815b81811015610de75760208187018101516060868401015201610dca565b81811115610df85782606083860101525b50602083019390935250601f91909101601f191601606001919050565b60008219821115610e2857610e28610e5f565b500190565b600082821015610e3f57610e3f610e5f565b500390565b6000600019821415610e5857610e58610e5f565b5060010190565b634e487b7160e01b600052601160045260246000fdfe66657463684d61726b65744974656d732069732063616c6c6564207769746820756e736f6c644974656d436f756e743aa264697066735822122098c53bf134ed28be37907710421171679e50b9071c064165a00487bebb107ee864736f6c63430008040033",
  "linkReferences": {},
  "deployedLinkReferences": {}
}